S02B00002F7661722F7777772F7765622F75736572732F7468616E682E64616E674076616E636F757665722EA9
S11300000C9449010C9468010C9468010C946801E7
S11300100C9468010C9468010C9468010C946801B8
S11300200C9468010C9468010C9468010C946801A8
S11300300C9468010C9468010C9468010C94980663
S11300400C9487060C9468010C9485040C94680144
S11300500C9401050C9468010C9468010C946801DB
S11300600C9468010C9454060C9433060C943E06CC
S11300700C9449060C9467060C9416060C946801BB
S11300800C9428060C9468010C946801000021105B
S1130090422063308440A550C660E77008812991EE
S11300A04AA16BB18CC1ADD1CEE1EFF13112100296
S11300B073325222B5529442F772D662399318833E
S11300C07BB35AA3BDD39CC3FFF3DEE36224433462
S11300D020040114E664C774A44485546AA54BB58E
S11300E028850995EEE5CFF5ACC58DD55336722636
S11300F011163006D776F6669556B4465BB77AA7DE
S113010019973887DFF7FEE79DD7BCC7C448E55881
S11301108668A7784008611802282338CCC9EDD92D
S11301208EE9AFF9488969990AA92BB9F55AD44AD5
S1130130B77A966A711A500A333A122AFDDBDCCB7D
S1130140BFFB9EEB799B588B3BBB1AABA66C877CA1
S1130150E44CC55C222C033C600C411CAEED8FFDCD
S1130160ECCDCDDD2AAD0BBD688D499D977EB66E75
S1130170D55EF44E133E322E511E700E9FFFBEEF1D
S1130180DDDFFCCF1BBF3AAF599F788F8891A981DF
S1130190CAB1EBA10CD12DC14EF16FE18010A100C9
S11301A0C230E3200450254046706760B9839893B9
S11301B0FBA3DAB33DC31CD37FE35EF3B102901219
S11301C0F322D2323542145277625672EAB5CBA585
S11301D0A89589856EF54FE52CD50DC5E234C32469
S11301E0A01481046674476424540544DBA7FAB759
S11301F09987B8975FE77EF71DC73CD7D326F236B9
S11302009106B01657667676154634564CD96DC9A4
S11302100EF92FE9C899E9898AB9ABA94458654808
S113022006782768C018E1088238A3287DCB5CDBF8
S11302303FEB1EFBF98BD89BBBAB9ABB754A545A58
S1130240376A167AF10AD01AB32A923A2EFD0FEDC4
S11302506CDD4DCDAABD8BADE89DC98D267C076CA8
S1130260645C454CA23C832CE01CC10C1FEF3EFF98
S11302705DCF7CDF9BAFBABFD98FF89F176E367EF8
S1130280554E745E932EB23ED10EF01E00081C181B
S1130290141011241FBECFEFD0E1DEBFCDBF11E09B
S11302A0A0E0B1E0E4E8F6E100E00BBF02C0079093
S11302B00D92A830B107D9F712E0A8E0B1E001C06F
S11302C01D92A431B107E1F70E94BE090C94410BC1
S11302D00C9400008FB7F894992708958FBF089560
S11302E07FB7F89462B720911D0130911E014091AF
S11302F01F015091200106B601FE0FC081B792B7CD
S1130300280F311D411D511D2F5F3F4F4F4F5F4F30
S1130310290F311D411D511D04C0260F311D411DE2
S1130320511D872F99278FBFCA01B9010895282F1E
S11303309FB7F894E82FFF27EA5DFE4F80818F3F37
S113034081F4E0910F02E21771F40BC020930802CC
S113035004C0FF27EA5DFE4F208320930F0220E0B4
S113036007C025E005C0809108028F3F91F7EECFCA
S1130370892F99278FBF822F992708951F931FB71D
S1130380F89480910E02882339F40E9497018823FF
S113039019F481E080930E02812F99278FBF1F915A
S11303A00895DF92EF92FF920F931F938FB7F89403
S11303B0282F3327D22E91B782B746B7981711F05A
S11303C041FF02C02FBF6AC0809171018823E1F10F
S11303D00E947001E090F601F090F7010091F8019D
S11303E01091F901209121013091220140912301C2
S11303F0509124016E197F09800B910B62177307CA
S11304008407950720F01092710171E01EC02E0D33
S11304103F1D401F511F80911D0190911E01A0910D
S11304201F01B0912001281B390B4A0B5B0B273E9F
S113043031054105510540F4822F223010F070E05F
S113044005C070E082E002C070E086EE682F615063
S113045000B601FCFDCF82B7681709F46F5F2091E5
S11304601D0130911E0140911F0150912001DA01BC
S1130470C9010196A11DB11D860F911DA11DB11DBC
S113048082179307A407B50710F4622F609561BF24
S1130490DFBE772319F086E00E9497011F910F9128
S11304A0FF90EF90DF900895AFB7F894BB27E1E099
S11304B0E09371016093F6017093F7018093F80162
S11304C09093F90120932101309322014093230159
S11304D050932401AFBF0E94D10108958091F3018C
S11304E08A3021F480913001843021F081E08093BE
S11304F00B01089582E00E94970110920B01089568
S11305002FB7F89433278CB95E9A2FBF0895FC0156
S11305106115710519F481E090E008958091370127
S113052090913801892B19F085E090E0089570933B
S1130530020260930102F0933801E09337011092B4
S113054032011092310181E0809333015E9A569A10
S1130550808121E030E030933201209331010E9408
S1130560800280E090E008958FB7F8949927209155
S11305701C012E7F20931C012EE720932E018FBF98
S113058061E070E08EE291E00E948702992708956D
S1130590ECE8F0E06927660FF11DE60FF11DC89540
S11305A0982F802D3196C89590250895982F809185
S11305B01701882389F5992379F531E030931701E0
S11305C0809100018093180120910C01822F817089
S11305D080932501809105019091060190931A0161
S11305E08093190180910D0180931B013227317092
S11305F0267EE32FFF27EE0FFF1FEF5FFE4F808164
S113060091819093060180930501232B20930C0183
S113061085E00E949701089580910C0180FF02C03B
S11306208B7F01C08D7F80930C0108950F931F93DE
S1130630082F162F809130018130D9F0813038F0A5
S1130640823009F44AC0833009F028C159C000231C
S113065009F458C11092FB011092FA011092F501AD
S1130660109203021092340110927D0110927C01C9
S113067039C1002309F046C180917C0190917D012C
S11306800E94C80290937D0180937C0182E0809354
S1130690300110930302143409F000C125C186957A
S11306A0869503C080910C018695817009F0F6C08F
S11306B080910C01992311F0846001C082608093C1
S11306C00C0180910C01877E886080930C0110924C
S11306D00D018FEF8093000115C1002309F0DEC0E6
S11306E06093340180917C0190917D010E94C80245
S11306F090937D0180937C0183E08093300102C15B
S11307008091F5018F3F09F4C9C0002309F461C049
S1130710823008F4C3C0E091FA01EE2309F4EBC07F
S11307204E2F4150E42FFF27E650FE4F8281992738
S1130730382F2227442311F4E2E002C0E42FE150D1
S1130740FF27E650FE4F82819927282B392B809171
S11307507C0190917D012817390709F09FC080E042
S11307600E94D6023091340180917201209173016C
S1130770982F9F5F963008F090E0921771F0E82F61
S1130780FF27EE58FE4F32838F5F809372018630CD
S113079010F0109272010E94BE011092FB0110929F
S11307A0FA0194E0909330011092F5011092030243
S11307B01092340110927D0110927C0180911C01F1
S11307C08D7F80931C0180910B01882309F49AC0CA
S11307D084C0823008F44EC0E091FB01FF27E6504C
S11307E0FE4F8281482F5527342F20910C01822FF0
S11307F0869586958695837099278130910519F0A1
S11308000297F9F40EC0277E206120930C01442343
S113081011F485E001C080E080930D013093000164
S113082010C080910D01843360F4E0910501F091D2
S11308300601E80FF11D408380910D018F5F8093C5
S11308400D018091FB01E82FFF27E650FE4F6281E6
S11308508F5F8093FB01833010F01092FB017727A8
S113086080917C0190917D010E94C80290937D014A
S113087080937C018091FA01E82FFF27E650FE4F18
S113088012838F5F8093FA01833010F01092FA0183
S11308908091F5018F5F8093F50134C01092FB01C4
S11308A01092FA0114E0109330011092F5011092A5
S11308B003021092340110927D0110927C01809108
S11308C01C018D7F80931C0181E00E94D6028091DF
S11308D00B01882329F0109330010E946E0212C08C
S11308E0002381F081E009CF80910C01982F917051
S11308F080FDD5CED7CE8091FE019927382F2227AF
S113090042E01CCF1F910F9108951F920F920FB6D2
S11309100F9211242F933F934F935F936F937F9381
S11309208F939F93AF93BF93EF93FF935F9B3DC0D0
S11309306CB1E0917E01F0917F013097F9F08091E4
S11309400C0290910D02E80FF91F608301969093B9
S11309500D0280930C02209112023091130282172F
S1130960930718F110927F0110927E018091F20199
S11309708330D9F057981092F20117C06E3719F4EA
S113098060E081E010C080911C016D3721F4826029
S113099080931C010AC081FF05C08D7F80931C01D8
S11309A080E2682780E00E941603FF91EF91BF91D7
S11309B0AF919F918F917F916F915F914F913F91F3
S11309C02F910F900FBE0F901F901895982F8D5751
S11309D0823068F480911C01816080931C0180E264
S11309E089278093F4018DE780932E0102C09093B0
S11309F02E0161E070E08EE291E00E948702992767
S1130A00089578941F920F920FB60F921124FF92BB
S1130A100F931F932F933F934F935F936F937F9302
S1130A208F939F93AF93BF93CF93DF93EF93FF93F2
S1130A3020913101309132018091010290910202A2
S1130A402817390780F4E0913701F0913801E20F5B
S1130A50F31F80812F5F3F4F309332012093310188
S1130A600E948002CDC0109238011092370110927A
S1130A7033015698FFB6F89480911C0180FF0EC094
S1130A808E7F80931C018091F40180932E0161E09C
S1130A9070E08EE291E00E948702AFC08091F30182
S1130AA0843009F48CC0853040F4823021F18330E5
S1130AB0B8F5813009F09CC00DC0863009F48DC0B2
S1130AC0863008F483C0873009F48EC0883009F07A
S1130AD08FC091C0809136010E94E604082F83E004
S1130AE08093F3016091360180911002909111027C
S1130AF00E94C80210C080910B020E94E604082FD5
S1130B0083E08093F30160910B0280911002909135
S1130B1011020E94C802909311028093100266C0D1
S1130B20E0918001FF27EE0FFF1FE65CFE4F8081FE
S1130B300E94E604082F10918001C12FDD27FE01D9
S1130B40EE0FFF1FE65CFE4F6081809110029091D2
S1130B5011020E94C8029093110280931002209106
S1130B6035012F5F20933501113039F58091130140
S1130B70E0910E01F0910F01E80FF11DE0818F5F0C
S1130B808093130190911201981730F482E08093BE
S1130B903B0140E050E002C04E2F5527DE01AA0F72
S1130BA0BB1FFD01E75CFE4F8081823031F02F3F97
S1130BB021F0A65CBE4F4C9319C084E012C0809112
S1130BC010020E94E604082F85E00BC080911102F8
S1130BD00E94E604082F86E004C00E94B402082F95
S1130BE087E08093F30102C088E003C0002329F06A
S1130BF089E08093F3010E94BE018F2D99278FBF56
S1130C00FF91EF91DF91CF91BF91AF919F918F9120
S1130C107F916F915F914F913F912F911F910F9110
S1130C20FF900F900FBE0F901F9018951F920F9278
S1130C300FB60F9211248F9380919B0087FF02C0FF
S1130C4080919C008F910F900FBE0F901F9018956C
S1130C5078941F920F920FB60F9211240F900FBE2B
S1130C600F901F90189578941F920F920FB60F92C1
S1130C7011240F900FBE0F901F90189578941F9217
S1130C800F920FB60F9211240F900FBE0F901F906A
S1130C90189578941F920F920FB60F9211240F900B
S1130CA00FBE0F901F90189578941F920F920FB655
S1130CB00F9211248F939F938091800090918100D3
S1130CC09F918F910F900FBE0F901F90189578945D
S1130CD01F920F920FB60F9211242F933F938F936D
S1130CE09F932FB7F894332780917A0190917B01D9
S1130CF0019690937B0180937A012FBF9F918F91EE
S1130D003F912F910F900FBE0F901F9018951F9237
S1130D100F920FB60F9211248F9383B783BF00B63F
S1130D2000FCFDCF8F910F900FBE0F901F90189570
S1130D301F920F920FB60F9211242F933F934F934C
S1130D405F936F937F938F939F93AF93BF93EF932F
S1130D50FF9383B783BF00B600FCFDCF81B799270B
S1130D600196AA27BB2720911D0130911E014091B5
S1130D701F0150912001280F391F4A1F5B1F209328
S1130D801D0130931E0140931F015093200178945C
S1130D900E94D101FF91EF91BF91AF919F918F91EB
S1130DA07F916F915F914F913F912F910F900FBE63
S1130DB00F901F901895EF92FF920F931F93E0915D
S1130DC08901E1FF97C02091810130918201409116
S1130DD0830150918401E0908501F0908601009197
S1130DE0870110918801621B730B840B950B6E15A0
S1130DF07F058007910708F47DC0E0FF04C0ED7F04
S1130E00E09389010CC02E0D3F1D401F511F2093FC
S1130E108101309382014093830150938401209196
S1130E20090130910A012F5F3F4F30930A0120934B
S1130E30090180910801882309F05CC020934A01CC
S1130E40832F9927809349018FEF809343018093E7
S1130E50420189E88093480182E0809346018091B1
S1130E60100190911101892B09F044C02FB7F89417
S1130E70332785E080931301109214018DE391E0F0
S1130E8090930F0180930E0182E090E09093110102
S1130E908093100110921601109215018EE0809338
S1130EA012012FBF8FB7F894282F33278091F301B5
S1130EB08A3011F42FBF1AC02FBF9FB7F8948091C6
S1130EC03B01882311F020E006C081E080933B01C0
S1130ED010923C0121E0892F99278FBF222331F002
S1130EE00E94BE0181E08093080104C010921101A8
S1130EF01092100187E00E9497011F910F91FF90BB
S1130F00EF900895EF92FF920F931F93CF93DF9387
S1130F10833009F42EC1843038F4813009F4F6C0EA
S1130F20823008F022C10DC0853009F441C18530FA
S1130F3008F422C1863009F47FC1873009F0FAC170
S1130F40AEC18FB7F89410920E022091F30140E0E5
S1130F50283009F441E030E0293009F431E0442339
S1130F6011F4332351F01092F301E0918001FF2733
S1130F70EE0FFF1FE75CFE4F108299278FBF4423BB
S1130F8011F4332331F19FB7F89480910B028F5FF2
S1130F9080930B0280913601833479F4209173019C
S1130FA080917201821779F0822F8F5F8093730191
S1130FB0863048F01092730106C0A0E0442309F47F
S1130FC0A1E071E002C0A0E070E0892F99278FBFF3
S1130FD006C0222311F0FF246DC0A0E070E08FB79B
S1130FE0F894992720910B018FBF222341F08FB7EA
S1130FF0F89499272AE02093F3018FBF42C08FB75A
S1131000F89499276091390140913B018FBF8FB7C4
S1131010F894282F332750E0909172018091730146
S1131020981709F451E02FBF552341F5662331F594
S11310305FB7F89482E0809339018FB7F894282F32
S1131040332740E09091720180917301981709F45D
S113105041E02FBF442311F080E006C0E09173010A
S1131060FF27EE58FE4F828180933A0183E48093F8
S1131070360110928001852F99270EC041504230CD
S113108010F0FF240CC08FB7F894992725E420931F
S1131090360121E0209380018FBF01E0F02E7723F9
S11310A049F08FB7F8949927A09314018FBF84E077
S11310B00E9497018FB7F894082F11278091F301AC
S11310C08A3021F40E946E020FBF34C10FBFFF208B
S11310D009F430C12FB7F8943327109211021092FB
S11310E010021092350181E08093F3012FBF0E941A
S11310F0B402882309F41EC18FB7F894992729E014
S11311002093F3018FBF0E94BE0114C156985798D3
S11311101092F20110923301539A549A579A8FB74E
S1131120F89499271092F301109230018FBF0E9416
S11311307001609381017093820180938301909385
S1131140840188EE93E0A0E0B0E080938501909361
S11311508601A0938701B0938801809189018E7FD5
S113116082608093890187E001C083E00E94970137
S1131170E1C053985498DEC01092110110921001EE
S11311808FB7F89499278FBFE0910E01F0910F016A
S113119080911601882309F0CDC08385893809F030
S11311A0C9C0ED53F14009F0C5C010920801C2C096
S11311B08FB7F894992720911801A0911901B09143
S11311C01A0130911B01409125018FBF2223E1F4C4
S11311D0932F9C50ED018B858938B1F49230A1F4A2
S11311E0FD013D968D8580FF02C0DA9801C0DA9A30
S11311F0808181FF02C0D99801C0D99A808182FF81
S113120002C0D89801C0D89A8FB7F894E42FFF276A
S1131210EE0FFF1FEF5FFE4FB183A08320910C01FF
S1131220442311F02B7F01C02D7F20930C011092D9
S1131230170199278FBF7EC080912F01882361F504
S11312402091040230910502409106025091070258
S1131250EFB7F894FF276091F6017091F701809140
S1131260F8019091F901E0902101F09022010091A0
S11312702301109124016E0D7F1D801F911FEFBF6C
S11312802093040230930502409306025093070210
S113129010922F010E9454020E94700139C00E94D2
S11312A070017B018C018FB7F8949927109271011A
S11312B08FBF8091890181FF3DC080918101909110
S11312C08201A0918301B0918401A8019701281B98
S11312D0390B4A0B5B0BDA01C9012091850130916E
S11312E086014091870150918801281B390B4A0BD4
S11312F05B0B2F3F8FEF38078FEF48078FE75807B7
S1131300C9F012161306140615062CF0C801B7010D
S11313100E94DB060FC02093040230930502409321
S113132006025093070281E080932F01C801B701A0
S11313300E945402DF91CF911F910F91FF90EF9083
S11313400895809108028F3FB1F0282F3327F901C7
S1131350EA5DFE4F8081809308028F3F11F48093F1
S11313600F028FEF80832F3F31F0822F0E9482077C
S113137081E090E0089580E090E00895FF920F935B
S11313801F93FFB6F89448E050E06FEF70E086E2F8
S113139091E00E943A0B8FEF8093080280930F0232
S11313A081E08EBD88E080BF83E083BF8CB59DB5AE
S11313B04AE72CB53DB52817390708F441504423B2
S11313C011F0C901F6CF92B782B78917E9F32CB5AA
S11313D03DB592B782B78917E9F38CB59DB5821BE9
S11313E0930B409665E0969587956A95E1F79093FF
S11313F00A028093090213BE83B78EBD8EB580BFE7
S113140012BE1DBC1CBC8FEF86BF86B780937C00C8
S113141080B7992787709070892BD1F715BA8FEF11
S113142084BBD498DC981092890010928800809133
S11314307D00846080937D0080918A00887F826033
S113144080938A00D29AD19AD09ADA9AD99AD89A61
S11314500E94A1098823E1F780B7886080BF8BE0F0
S113146083BF86EE81BF87B7826087BF0E94D101A8
S113147012E006E06091090270910A028827992718
S11314805CE0660F771F881F991F5A95D1F720E0FB
S113149031EE40E050E00E94180B2150304029B951
S11314A0832F9927809390001BB9009395001AB855
S11314B0209399008093980010939B0000939D00C3
S11314C010929A0084E490E0909300028093FF01CC
S11314D01092390110923B018AE08093F30110923B
S11314E035011092360110920B02109211021092E3
S11314F0100210920E02109280011092FB011092C1
S1131500FA0184E0809330011092F50110920302F5
S11315101092340110927D0110927C01109273019B
S1131520109272010E94A1098823E1F78F2D992757
S11315308FBF78948FB7F894282F3327922F8091F8
S1131540F3018A3031F080913001843011F02FBFE3
S113155004C09FBF81E00E9497018FB7F894482F81
S113156055274BC087B7992783709070892B19F43E
S1131570E5E0F0E013C080B7992787709070892B5D
S1131580D1F781B792B7891B8C3030F082B7853F91
S113159018F4E3E0F0E002C0E2E0F0E087B7887B13
S11315A0C1F480917D008B7FA1F46E9912C08AB141
S11315B090919A00892B887161F48091740082FD66
S11315C008C0379B03C081E090E005C085E090E04F
S11315D002C080E090E025B78E1708F4E82FFF27BB
S11315E0E457FD4FE491237E2062E22BE5BF78941B
S11315F08895F89485B78F7D85BF809108028F3FC9
S113160009F4B0CF282F3327F901EA5DFE4F80811A
S1131610809308028F3F11F480930F028FEF808331
S11316202F3F09F49FCF4FBF822F0E94820795CF8F
S1131630A1E21A2EAA1BBB1BFD010DC0AA1FBB1FD2
S1131640EE1FFF1FA217B307E407F50720F0A21B44
S1131650B30BE40BF50B661F771F881F991F1A94B1
S113166069F760957095809590959B01AC01BD01DB
S1131670CF010895DC0101C06D9341505040E0F763
S10716800895FFCFF7
S10B1684FF8A01BE018A010086
S9030000FC
